:100000000C944A010C947B010C947B010C947B01B1
:100010000C947B010C947B010C947B010C947B0170
:100020000C947B010C947B010C947B010C947B0160
:100030000C947B010C947B010C947B010C947B0150
:100040000C947B010C947B010C947B010C947B0140
:100050000C947B010C947B010C947B010C947F0429
:100060000C947B010C94F3040C94C9040C947B0154
:100070000C947B010C947B010C947B010C947B0110
:100080000C947B010C947B010C947B010C947B0100
:100090000C947B010C947B010C947B010C947B01F0
:1000A0000C947B010C947B010C947B010C947B01E0
:1000B0000C947B010C947B010C947B010C947B01D0
:1000C0000C947B010C947B010C947B010C947B01C0
:1000D0000C947B010C947B010C947B010C947B01B0
:1000E0000C947B010C9481020C94B7030C94900245
:1000F0000C9452040C9437030C94B2020C94EA0250
:100100000C94CC010C94C4010C94EB010C942E04BF
:100110000C94E7010C94B1030C94D3010C94D0011E
:100120000C9446040C9405040C94AD010C94C30388
:100130000C94DB030C94C8010C945E040C94030231
:100140000C94FF010C94DD010C94F9030C94110440
:100150000C94D9010C94F1010C94ED030C94A402BD
:100160000C94E4030C94B2010C9422040C94E3016B
:100170000C94F5010C94F9010C943A040C94AB0323
:100180000C9454020C94CF030C94410600002100FF
:10019000240027002A002D00300033000101000058
:1001A000040107010A0100002200250028002B009D
:1001B0002E003100340002010000050108010B018E
:1001C00005050505070508080808020202020A0AD3
:1001D00008080404040401010101010101010303F1
:1001E000030303030303040707070C0C0C0C0C0C9C
:1001F0000C0C0202020206060606060606060B0B99
:100200000B0B0B0B0B0B01021020200808102040D9
:1002100010204080020102010804020101020408CA
:100220001020408080402010080402018004020158
:1002300080402010080402010804020101020408A1
:1002400010204080010204081020408000000A0BAA
:1002500002090C0D0E080703040100000000000055
:10026000000000000000000000000000000000008E
:10027000000000000000000012111000000000004B
:10028000000000000000000000000000000000006E
:100290000000410611241FBECFEFD1E2DEBFCDBF6B
:1002A00000E00CBF12E0A0E0B2E0E0EFFCE000E014
:1002B0000BBF02C007900D92A631B107D9F722E01B
:1002C000A6E1B2E001C01D92AE3BB207E1F711E03A
:1002D000CAE4D1E000E006C021970109802FFE01A9
:1002E0000E946E06C934D10780E00807A9F70E9472
:1002F00029050C9476060C940000282F30E0F901B3
:10030000E45BFD4F9491F901EA5FFD4F4491205465
:100310003E4FF9012491222309F435C0992311F1AC
:1003200091509231F8F4E92FF0E08827E556FE4F1E
:100330008F4F0C946E06CC01D001AD01C401C801F1
:10034000B201D301D901DD01E301E701EB01F101C4
:10035000F501B201F901FF010302809180008F775E
:1003600080938000E22FF0E0EE0FFF1FEA55FE4F72
:10037000A591B4918FB7F894EC91611148C0409564
:100380004E234C938FBF0895809180008F7DE8CFDE
:1003900080918000877FE4CF84B58F7784BDE2CFE2
:1003A00084B58F7DFBCF8091B0008F778093B000B4
:1003B000D9CF8091B0008F7DF9CF809190008F7759
:1003C00080939000CFCF809190008F7DF9CF809166
:1003D0009000877FF5CF8091A0008F778093A00059
:1003E000C1CF8091A0008F7DF9CF8091A000877F41
:1003F000F5CF809120018F7780932001B3CF80913A
:1004000020018F7DF9CF80912001877FF5CF4E2B82
:10041000B8CFCF93DF9390E0FC01EA5FFD4F2491CA
:1004200080549E4FFC0184918823D1F090E0880F86
:10043000991FFC01E457FE4FA591B491FC01EA55C8
:10044000FE4FC591D49161110EC09FB7F8948C9165
:10045000E22FE0958E238C932881E223E8839FBFCF
:10046000DF91CF9108958FB7F894EC91E22BEC9344
:100470008FBFF6CF20917B00982F987F277F922BFC
:1004800090937B008770806480937C0080917A00D9
:10049000806480937A0080917A0086FDFCCF809101
:1004A0007800909179000895AF92BF92CF92DF9239
:1004B000EF92FF920F931F93CF93DF936C017B0119
:1004C0008B01040F151FEB015E01AE18BF08C017AA
:1004D000D10759F06991D601ED91FC910190F0811D
:1004E000E02DC6011995892B79F7C501DF91CF91D0
:1004F0001F910F91FF90EF90DF90CF90BF90AF9042
:100500000895FC01538D448D252F30E0842F90E019
:10051000821B930B541710F0CF96089501970895FE
:10052000FC01918D828D981761F0A28DAE0FBF2FC7
:10053000B11D5D968C91928D9F5F9F73928F90E01D
:1005400008958FEF9FEF0895FC01918D828D98178C
:1005500031F0828DE80FF11D858D90E008958FEFC9
:100560009FEF0895FC01918D228D892F90E0805C92
:100570009F4F821B91098F739927089581E292E022
:100580000E94B20221E0892B09F420E0822F089515
:10059000FC01A48DA80FB92FB11DA35ABF4F2C91F8
:1005A000848D90E001968F739927848FA689B789EF
:1005B0002C93A089B1898C91837080648C93938DE6
:1005C000848D981306C00288F389E02D80818F7D89
:1005D00080830895EF92FF920F931F93CF93DF9341
:1005E000EC0181E0888F9B8D8C8D98131AC0E8896F
:1005F000F989808185FF15C09FB7F894EE89FF893E
:100600006083E889F98980818370806480839FBFDB
:1006100081E090E0DF91CF911F910F91FF90EF90DB
:100620000895F62E0B8D10E00F5F1F4F0F731127EB
:10063000E02E8C8D8E110CC00FB607FCFACFE88926
:10064000F989808185FFF5CFCE010E94C802F1CFE4
:10065000EB8DEC0FFD2FF11DE35AFF4FF0829FB79A
:10066000F8940B8FEA89FB8980818062CFCFCF938A
:10067000DF93EC01888D8823B9F0AA89BB89E889CA
:10068000F9898C9185FD03C0808186FD0DC00FB670
:1006900007FCF7CF8C9185FFF2CF808185FFEDCFEE
:1006A000CE010E94C802E9CFDF91CF91089580E08A
:1006B00090E0892B29F00E94BE0281110E94000067
:1006C00080E090E0892B49F080E090E0892B29F0D0
:1006D0000E94000081110E94000080E090E0892BC0
:1006E00049F080E090E0892B29F00E940000811100
:1006F0000E94000080E090E0892B49F080E090E0CB
:10070000892B29F00E94000081110C9400000895AB
:10071000982FE82FF0E0E45BFD4FE491E150E231E7
:1007200008F0CCC0F0E08827E756FC4F8F4F0C94C0
:100730006E06AB03B103B703C303CF035E04DB0351
:10074000E403ED03F9030504110422042E045E04FE
:100750003A044604520484B5806884BD88E787BDA6
:10076000089584B5806284BD88E788BD089580912E
:10077000800080688093800088E790E090938900F3
:10078000809388000895809180008062809380002B
:1007900088E790E090938B0080938A000895809181
:1007A000800088608093800088E790E090938D00BF
:1007B00080938C0008958091B00080688093B00091
:1007C00088E78093B30008958091B00080628093A1
:1007D000B00088E78093B40008958091900080680D
:1007E0008093900088E790E0909399008093980020
:1007F00008958091900080628093900088E790E057
:1008000090939B0080939A00089580919000886057
:100810008093900088E790E090939D0080939C00E7
:1008200008958091A00080688093A0008091A0002E
:100830008F7B8093A00088E790E09093A90080933D
:10084000A80008958091A00080628093A00088E7AE
:1008500090E09093AB008093AA0008958091A0004F
:1008600088608093A00088E790E09093AD0080932B
:10087000AC0008958091200180688093200188E772
:1008800090E09093290180932801089580912001A0
:1008900080628093200188E790E090932B01809301
:1008A0002A0108958091200188608093200188E7C3
:1008B00090E090932D0180932C01089560E0892FA2
:1008C0000C947D01CF93DF93FC0101900020E9F7A8
:1008D0003197AF01481B590BBC0181E292E00E94A5
:1008E0005402EC0142E050E062E172E081E292E009
:1008F0000E9454028C0F9D1FDF91CF9108951F928B
:100900000F920FB60F9211242F933F938F939F93C3
:10091000AF93BF9380911D0290911E02A0911F0280
:10092000B091200230911C0223E0230F2D3758F59F
:100930000196A11DB11D20931C0280931D0290936E
:100940001E02A0931F02B093200280911802909182
:100950001902A0911A02B0911B020196A11DB11DAE
:100960008093180290931902A0931A02B0931B026D
:10097000BF91AF919F918F913F912F910F900FBE9B
:100980000F901F90189526E8230F0296A11DB11D08
:10099000D2CF1F920F920FB60F9211240BB60F9267
:1009A0002F933F934F935F936F937F938F939F9377
:1009B000AF93BF93EF93FF9381E292E00E94C8024E
:1009C000FF91EF91BF91AF919F918F917F916F9127
:1009D0005F914F913F912F910F900BBE0F900FBEE3
:1009E0000F901F9018951F920F920FB60F9211241F
:1009F0000BB60F922F938F939F93EF93FF93E091FA
:100A00003102F09132028081E0913702F091380298
:100A100082FD1DC0908180913A028F5F8F7320917B
:100A20003B02821741F0E0913A02F0E0EF5DFD4FAA
:100A3000958F80933A02FF91EF919F918F912F9123
:100A40000F900BBE0F900FBE0F901F9018958081D6
:100A5000F2CF789484B5826084BD84B5816084BD12
:100A600085B5826085BD85B5816085BD80916E004C
:100A7000816080936E00109281008091810082607D
:100A800080938100809181008160809381008091BA
:100A900080008160809380008091B10084608093A9
:100AA000B1008091B00081608093B000809191008E
:100AB0008260809391008091910081608093910089
:100AC000809190008160809390008091A10082606D
:100AD0008093A1008091A10081608093A10080910A
:100AE000A00081608093A0008091210182608093AA
:100AF0002101809121018160809321018091200159
:100B000081608093200180917A00846080937A00D4
:100B100080917A00826080937A0080917A0081606F
:100B200080937A0080917A00806880937A00109296
:100B3000C10061E082E00E94090261E083E00E945E
:100B4000090261E084E00E94090261E085E00E9400
:100B5000090260E086E00E94090260E087E00E94EE
:100B6000090260E088E00E94090260E089E00E94DA
:100B7000090261E08AE00E94090261E08BE00E94C4
:100B80000902E0913102F091320282E08083E0912B
:100B90002D02F0912E021082E0912F02F09130028E
:100BA0008FEC808310923902E0913502F091360289
:100BB00086E08083E0913302F0913402808180618D
:100BC0008083E0913302F0913402808188608083D9
:100BD000E0913302F0913402808180688083E0915B
:100BE0003302F091340280818F7D808361E08AE05E
:100BF0000E9409028AE00E94880361E08BE00E9463
:100C000009028BE00E94880386E00E943A02EC0110
:100C100087E00E943A02C80FD91FD0931702C093F1
:100C2000160288E00E943A028C0189E00E943A0292
:100C3000CD2BA1F4080F191F012B81F460E082E095
:100C40000E947D0161E083E00E947D0160E084E01C
:100C50000E947D0161E085E00E947D0161E082E00B
:100C60000E947D0160E083E00E947D0161E084E0FC
:100C70000E947D0160E085E00E947D010E94570393
:100C8000C3CFE1E2F2E01382128288EE93E0A0E0AB
:100C9000B0E084839583A683B78384E092E0918358
:100CA000808385EC90E09587848784EC90E097873B
:100CB000868780EC90E0918B808B81EC90E0938B29
:100CC000828B82EC90E0958B848B86EC90E0978B06
:100CD000868B118E128E138E148E0895EE0FFF1FC9
:100CE000881F8BBF0790F691E02D1994F894FFCFE1
:100CF00000000000EA02540281023703B2029002AF
:060D0000A4020D0A000030
:00000001FF
